:100000000C9434030C9415040C947E050C94460354
:100010000C9446030C9446030C9446030C9446033C
:100020000C9446030C94BF050C9446030C944603B1
:100030000C9446030C9446030C9446030C9446031C
:100040000C9446030C9446030C9446030C9446030C
:100050000C9446030C9446030C9446030C944603FC
:100060000C9446030C9446030000003CD242043C2E
:10007000F4A9083C9C360D3C08EA113C85C5163CA9
:1000800066CA1B3C0DFA203CE755263C6BDF2B3C37
:100090002098313C9781373C6F9D3D3C57ED433C68
:1000A0000A734A3C5230513C0827583C17595F3C70
:1000B00079C8663C36776E3C6D67763C4A9B7E3CE1
:1000C000878A833C87EB873CD7718C3CB71E913C79
:1000D0006FF3953C52F19A3CBF19A03C216EA53CB0
:1000E000EEEFAA3CAAA0B03CE481B63C3995BC3CFA
:1000F00056DCC23CF258C93CD60CD03CD8F9D63CB0
:10010000E121DE3CE686E53CEF2AED3C1610F53CAD
:100110008538FD3C3DD3023D222E073D25AE0B3DEB
:100120008154103D7E22153D6C191A3DA93A1F3DA0
:100130009E87243DBF012A3D8DAA2F3D9583353DE5
:10014000748E3B3DD1CC413D6340483DF0EA4E3D8D
:100150004CCE553D5BEC5C3D1347643D76E06B3D1A
:100160009DBA733DAED77B3DF21C823DC671863D84
:1001700083EB8A3D658B8F3DAF52943DB342993DF1
:10018000CA5C9E3D5DA2A33DDC14A93DC7B5AE3D52
:10019000A986B43D1C89BA3DC6BEC03D5B29C73D9A
:1001A0009ECACD3D61A4D43D86B8DB3DFD08E33D4C
:1001B000CB97EA3D0067F23DC378FA3DA567013E63
:1001C00070B6053EF1290A3E61C30E3E0384133E1C
:1001D000256D183E21801D3E5ABE223E4229283EF2
:1001E00056C22D3E1E8B333E3185393E34B23F3EE2
:1001F000D813463EDEAB4C3E157C533E5D865A3EE0
:10020000A3CC613EE950693E3C15713EC11B793E6D
:1002100055B3803E1FFC843E6C69893E74FC8D3E64
:1002200076B6923EC198973EABA49C3E96DBA13E2B
:10023000F13EA73E38D0AC3EF090B23EB082B83E20
:1002400017A7BE3ED7FFC43EAD8ECB3E6655D23E0D
:10025000DE55D93E0292E03ECE0BE83E4FC5EF3E62
:10026000A5C0F73E0000003FD242043FF4A9083F7A
:100270009C360D3F08EA113F85C5163F66CA1B3FF5
:100280000DFA203FE755263F6BDF2B3F2098313F8B
:100290009781373F6F9D3D3F57ED433F0A734A3F7C
:1002A0005230513F0827583F17595F3F79C8663F82
:1002B00036776E3F6D67763F4A9B7E3F878A833FE6
:1002C00087EB873FD7718C3FB71E913F6FF3953F08
:1002D00052F19A3FBF19A03F216EA53FEEEFAA3F12
:1002E000AAA0B03FE481B63F3995BC3F56DCC23F7F
:1002F000F258C93FD60CD03FD8F9D63FE121DE3FB6
:10030000E686E53FEF2AED3F1610F53F8538FD3FC5
:100310003DD30240222E074025AE0B4081541040B1
:100320007E2215406C191A40A93A1F409E8724402E
:10033000BF012A408DAA2F4095833540748E3B40E3
:10034000D1CC414063404840F0EA4E404CCE55404D
:100350005BEC5C401347644076E06B409DBA7340B1
:10036000AED77B40F21C8240C671864083EB8A4048
:10037000658B8F40AF529440B3429940CA5C9E4017
:100380005DA2A340DC14A940C7B5AE40A986B44025
:100390001C89BA40C6BEC0405B29C7409ECACD403A
:1003A00061A4D44086B8DB40FD08E340CB97EA4027
:1003B0000067F240C378FA40A567014170B6054175
:1003C000F1290A4161C30E4103841341256D18418F
:1003D00021801D415ABE22414229284156C22D4149
:1003E0001E8B33413185394134B23F41D8134641E8
:1003F000DEAB4C41157C53415D865A41A3CC614133
:10040000E95069413C157141C11B794155B38041A7
:100410001FFC84416C69894174FC8D4176B6924120
:10042000C1989741ABA49C4196DBA141F13EA74105
:1004300038D0AC41F090B241B082B84117A7BE416C
:10044000D7FFC441AD8ECB416655D241DE55D9416F
:100450000292E041CE0BE8414FC5EF41A5C0F74104
:1004600000000042000080420A000A000A000A0060
:100470000B000B000B000C000C000C000D000D001D
:100480000D000E000E000F000F000F0010001000F6
:1004900011001100120012001300130014001400C8
:1004A0001500160016001700170018001900190093
:1004B0001A001B001C001C001D001E001F00200055
:1004C0002100220023002400250026002700280008
:1004D00029002A002B002C002E002F0030003200B3
:1004E000330034003600370039003A003C003E004B
:1004F0003F00410043004500470049004B004D00CC
:100500004F0051005400560058005B005D00600031
:100510006200650068006B006E0071007400770077
:100520007B007E008200850089008D00910095008F
:1005300099009D00A100A600AA00AF00B400B90078
:10054000BE00C300C900CE00D400DA00E000E6001F
:10055000ED00F300FA00010108010F0117011E016F
:1005600026012F0137014001480151015B0164015F
:100570006E01780183018E019901A401B001BB01D4
:10058000C801D401E101EF01FC010A0219022802AD
:10059000370247025702680279028A029C02AF02C0
:1005A000C202D502E902FE02130329033F035603E8
:1005B0006E0386039F03B903D303EE030A042704E3
:1005C000440462048104A104C204E40407052A056A
:1005D0004F0574059B05C305EB05150641066D0621
:1005E0009A06C906F9062B075D079207C707FE079B
:1005F00037087108AD08EA0829096A09AD09F20946
:10060000380A800ACB0A170B660BB70B090C5F0C74
:10061000B60C100D6D0DCC0D2E0E920EF90E630F53
:10062000D00F4110B4102A11A3112012A1122513CA
:10063000AC133814C7145A15F1158D162C17D11791
:1006400079182719D919901A4C1B0D1CD41CA01D00
:10065000721E4A1F27200B21F521E522DD23DB2412
:10066000E025EC260028E02E11241FBECFEFD4E0B9
:10067000DEBFCDBF21E0A0E0B1E001C01D92AC31F2
:10068000B207E1F70E9415060C94CF070C94000006
:10069000809529F484B58F7784BD5E98089593E89A
:1006A00094BD87BD0895092E000CAA0BBB0B9C01BD
:1006B000AD0184E0220F331F441F551F8A95D1F7E7
:1006C00060E074E284EF90E00E946F06DA01C901F5
:1006D0000197A109B109892F9A2FAB2FBB278093CE
:1006E000C50021502093C40088E18093C100089583
:1006F000ECE7F0E080818F77808380818064808365
:10070000808180628083EAE7F0E08081846080837A
:100710008081826080838081806880838081877F00
:10072000808317B818B8089590917C00987F9093B3
:100730007C0090917C008770982B90937C00809136
:100740007A00806480937A0080917A0084FFFCCFE5
:1007500080917900089580E00E94940390E0909346
:1007600014018093130183E00E94940320911301EC
:1007700030911401281B3109309314012093130187
:10078000809113019091140197FF05C010921401FC
:10079000109213010EC080911301909114018F3FAC
:1007A000910539F034F08FEF90E09093140180932D
:1007B0001301E0911301F0911401EE0FFF1FE859AE
:1007C000FB4F85919491909319018093180181E0DA
:1007D0000E94940390E090931B0180931A0182E0A1
:1007E0000E94940320911A0130911B01281B3109AA
:1007F00030931B0120931A0180911A0190911B01E3
:10080000181619061CF081E090E00AC080911A01C8
:1008100090911B018F3F910539F034F08FEF90E0FC
:1008200090931B0180931A0108951F920F920FB6A7
:100830000F9211248F929F92BF92CF92DF92EF92EC
:10084000FF920F931F932F933F934F935F936F9359
:100850007F938F939F93AF93BF93EF93FF93CF9328
:10086000DF9300D000D0CDB7DEB710921201109107
:100870008400612F70E080E090E02FEF30E040E0F6
:1008800050E00E946F06062FB72E809110019091C4
:1008900011010196909311018093100120910E0196
:1008A00030910F018217930708F451C01092110183
:1008B00010921001599A8FE193E00197F1F700C06F
:1008C0000000599880911501C02ED12CE12CF12CFB
:1008D000811119C00E94AB03809113019091140102
:1008E000892B31F481E090E09093140180931301FF
:1008F00060911301709114018091120190E00E94A7
:100900005B06FC0106C00E94AB03E0911301F0916D
:100910001401EE0FFF1FEE0FFF1FE859FF4F259147
:10092000359145915491C701B60129833A834B8390
:100930005C830E94D40629813A814B815C810E94AC
:100940003A070E94A50670930F0160930E018091F3
:100950001601823009F045C00E94AB0380910C0162
:1009600090910D01019690930D0180930C012091BF
:100970000A0130910B018217930798F110920D0133
:1009800010920C0160911A0170911B01802F9B2D18
:100990000E945B060E944803E0911301F09114014C
:1009A000EE0FFF1FEE0FFF1FE859FF4F2591359106
:1009B000459154916091120170E080E090E02983AC
:1009C0003A834B835C830E94D40629813A814B8110
:1009D0005C810E943A070E94A50670930B01609308
:1009E0000A019091080110FB882480F8092E01C0AB
:1009F000880C0A94EAF780910901182D180F1093BA
:100A0000090181E0890F80930801883009F056C000
:100A10001093170180911601813009F04BC080912D
:100A200006019091070101969093070180930601BA
:100A300020910401309105018217930708F43AC010
:100A40000E94AB03109207011092060160911A01F7
:100A500070911B01812F90E00E945B060E94480369
:100A6000E0911301F0911401EE0FFF1FEE0FFF1F35
:100A7000E859FF4F259135914591549160911201AC
:100A800070E080E090E029833A834B835C830E948E
:100A9000D40629813A814B815C810E943A070E94E9
:100AA000A50693E0769567959A95E1F77093050111
:100AB0006093040110920901109208010F900F90A9
:100AC0000F900F90DF91CF91FF91EF91BF91AF9178
:100AD0009F918F917F916F915F914F913F912F9156
:100AE0001F910F91FF90EF90DF90CF90BF909F905C
:100AF0008F900F900FBE0F901F9018951F920F921E
:100B00000FB60F9211242F933F934F935F936F93E0
:100B10007F938F939F93AF93BF93CF93DF93EF9385
:100B2000FF93809116018330B9F40E94AB0360916A
:100B30008400C0911A01D0911B0170E080E090E028
:100B40002FEF30E040E050E00E946F06CB01BE0185
:100B50000E945B060E944803FF91EF91DF91CF91C5
:100B6000BF91AF919F918F917F916F915F914F91C5
:100B70003F912F910F900FBE0F901F9018951F92CD
:100B80000F920FB60F9211242F933F934F935F93C1
:100B90006F937F938F939F93AF93BF93EF93FF9345
:100BA00084E68093B2008091160181112DC080915E
:100BB0000201909103010196909303018093020139
:100BC0002091020130910301809100019091010177
:100BD00028173907C8F00E94AB0310920301109246
:100BE00002018091170160911A0170911B0190E040
:100BF0000E945B060E9448038091180190911901A0
:100C00009093010180930001FF91EF91BF91AF910B
:100C10009F918F917F916F915F914F913F912F9114
:100C20000F900FBE0F901F9018950E94780382E4DA
:100C30008AB980E38BB910926E0083E884BD83E0AB
:100C400085BD9FE390937E0094E697BD2EE02093B0
:100C500069008DBB1092800080918100816080933B
:100C600081001092B0008091B10087608093B10044
:100C7000809170008160809370009093B2007894AE
:100C800010920301109202018AE090E0909301011A
:100C900080930001909319018093180189B1829586
:100CA0008F708095837080931601809116018695D0
:100CB00080931501F3CF97FB072E16F4009407D00D
:100CC00077FD09D00E94910607FC05D03EF490956F
:100CD00081959F4F0895709561957F4F0895A1E28A
:100CE0001A2EAA1BBB1BFD010DC0AA1FBB1FEE1FA6
:100CF000FF1FA217B307E407F50720F0A21BB30BF1
:100D0000E40BF50B661F771F881F991F1A9469F76C
:100D100060957095809590959B01AC01BD01CF01C8
:100D20000895AA1BBB1B51E107C0AA1FBB1FA61732
:100D3000B70710F0A61BB70B881F991F5A95A9F784
:100D400080959095BC01CD0108950E94190788F007
:100D50009F5798F0B92F9927B751B0F0E1F0660F7F
:100D6000771F881F991F1AF0BA95C9F714C0B130C0
:100D700091F00E943307B1E008950C943307672F78
:100D8000782F8827B85F39F0B93FCCF386957795EF
:100D90006795B395D9F73EF49095809570956195D8
:100DA0007F4F8F4F9F4F0895E89409C097FB3EF403
:100DB00090958095709561957F4F8F4F9F4F9923A8
:100DC000A9F0F92F96E9BB279395F6958795779526
:100DD0006795B795F111F8CFFAF4BB0F11F460FFE6
:100DE0001BC06F5F7F4F8F4F9F4F16C0882311F03E
:100DF00096E911C0772321F09EE8872F762F05C052
:100E0000662371F096E8862F70E060E02AF09A95EC
:100E1000660F771F881FDAF7880F9695879597F9E1
:100E2000089557FD9058440F551F59F05F3F71F0DA
:100E30004795880F97FB991F61F09F3F79F0879541
:100E40000895121613061406551FF2CF4695F1DFCA
:100E500008C0161617061806991FF1CF869571055A
:100E6000610508940895E894BB2766277727CB018E
:100E700097F908950E944D070C94BE070E94B00791
:100E800038F00E94B70720F0952311F00C94A707C3
:100E90000C94AD0711240C9434070E94110770F3D1
:100EA000959FC1F3950F50E0551F629FF001729F0F
:100EB000BB27F00DB11D639FAA27F00DB11DAA1F1E
:100EC000649F6627B00DA11D661F829F2227B00D6B
:100ED000A11D621F739FB00DA11D621F839FA00DF6
:100EE000611D221F749F3327A00D611D231F849F46
:100EF000600D211D822F762F6A2F11249F5750409D
:100F00009AF0F1F088234AF0EE0FFF1FBB1F661F17
:100F1000771F881F91505040A9F79E3F510580F0E0
:100F20000C94A7070C9434075F3FE4F3983ED4F386
:100F3000869577956795B795F795E7959F5FC1F784
:100F4000FE2B880F911D9695879597F9089597F92F
:100F50009F6780E870E060E008959FEF80EC08955F
:100F600000240A9416161706180609060895002488
:100F70000A9412161306140605060895092E039402
:100F8000000C11F4882352F0BB0F40F4BF2B11F476
:100F900060FF04C06F5F7F4F8F4F9F4F0895F8949D
:020FA000FFCF81
:00000001FF
